:1000000045C0000058C0000056C0000054C00000A9
:1000100052C0000050C000004EC000004CC00000A4
:100020004AC0000048C0000046C0000044C00000B4
:1000300042C0000040C000003EC000003CC00000C4
:100040003AC0000038C0000036C0000034C00000D4
:1000500032C0000030C000002EC000002CC00000E4
:100060002AC0000028C0000026C0000024C00000F4
:1000700022C0000020C000001EC000001CC0000004
:100080001AC0000018C0000016C0000011241FBED6
:10009000CFEFD0E1DEBFCDBF11E0A0E0B1E0ECE6F4
:1000A000F1E000E00BBF02C007900D92AE31B10746
:1000B000D9F731D059C0A4CF20E030E008C0EFEC30
:1000C000F7E03197F1F700C000002F5F3F4F28178E
:1000D0003907ACF30895EF92FF920F931F93CF93DC
:1000E000DF937C018B01C0E0D0E00BC0FE01EE0F7E
:1000F000FF1FEE0DFF1D808182BB88EC90E0DCDFEE
:100100002196C017D10794F3DF91CF911F910F91E2
:10011000FF90EF900895CF93DF93CDB7DEB76E9742
:100120000FB6F894DEBF0FBECDBF8EE0E0E0F1E089
:10013000DE01119601900D928A95E1F780E1EEE0E3
:10014000F1E0DE011F9601900D928A95E1F78FEFA5
:1001500081BB67E070E0CE010196BDDF68E070E032
:0C016000CE010F96B8DFF5CFF894FFCF6A
:10016C00810042002400180024004200810001009C
:0E017C00020004000800100020004000800077
:00000001FF
