S01D0000436F64696E67375365676D656E74446973706C61792E73726563D3
S113000045C0000070C000008BC000005CC0000050
S11300105AC0000058C0000056C0000054C0000080
S113002052C0000050C000004EC000004CC0000090
S11300304AC0000048C0000046C0000044C00000A0
S113004042C0000040C000003EC000003CC00000B0
S11300503AC0000038C0000036C0000034C00000C0
S113006032C0000030C000002EC000002CC00000D0
S11300702AC0000028C0000026C0000024C00000E0
S113008022C0000020C000001EC0000011241FBEBA
S1130090CFEFD0E1DEBFCDBF11E0A0E0B1E0E0EAF8
S11300A0F1E000E00BBF02C007900D92A031B10750
S11300B0D9F721E0A0E1B1E001C01D92A231B2075D
S11300C0E1F74BD06BC09CCF20E030E008C0EFECF0
S11300D0F7E03197F1F700C000002F5F3F4F28177A
S11300E03907ACF308951F920F920FB60F921124A3
S11300F08F939F9380911001909111010196909399
S1130100110180931001819B04C01092110110927F
S113011010019F918F910F900FBE0F901F90189513
S11301201F920F920FB60F9211248F939F93809179
S11301301001909111010197909311018093100186
S1130140809B04C010921101109210019F918F9115
S11301500F900FBE0F901F9018958FEF87BB11BAA9
S1130160EAE6F0E080818F60808389B7836089BF8D
S113017078948FE388BB80911001909111018031B4
S1130180910530F4FC01E050FF4F808188BB02C030
S113019082E788BB8AE090E097DFEDCFF894FFCF49
S11301A03F055B4F657E077F6F6F7C3A5D7A720017
S9030000FC
