:1000000045C000004BC0000049C0000047C00000D0
:1000100045C0000043C0000041C000003FC00000D8
:100020003DC000003BC0000039C0000037C00000E8
:1000300035C0000033C0000031C000002FC00000F8
:100040002DC000002BC0000029C0000027C0000008
:1000500025C0000023C0000021C000001FC0000018
:100060001DC000001BC0000019C0000017C0000028
:1000700015C0000013C0000011C000000FC0000038
:100080000DC000000BC0000009C0000011241FBEFD
:10009000CFEFD0E1DEBFCDBF3FD04DC0B1CF20E02C
:1000A00030E008C0EFECF7E03197F1F700C0000056
:1000B0002F5F3F4F28173907ACF308958230910521
:1000C000B9F02CF4009751F0019769F0089584304D
:1000D0009105C1F094F00597D1F008958BEF81BBA5
:1000E00081E082BB08958BEF81BB82E082BB0895E3
:1000F0008EEF81BB82E082BB08958EEF81BB84E0EE
:1001000082BB08958DEF81BB81E082BB08958DEFA6
:1001100081BB84E082BB08958FEF81BBC0E0D0E05B
:1001200006C0CE01CBDF84EF91E0B9DF2196C63067
:0A013000D105BCF3F3CFF894FFCF24
:00000001FF
