:1000000045C0000053C0000051C000004FC00000B8
:100010004DC000004BC0000049C0000047C00000B8
:1000200045C000007EC0000041C000003FC000008D
:100030003DC000003BC0000039C0000037C00000D8
:1000400035C0000033C0000031C000002FC00000E8
:100050002DC000002BC0000029C0000027C00000F8
:1000600025C0000023C0000021C000001FC0000008
:100070001DC000001BC0000019C0000017C0000018
:1000800015C0000013C0000011C0000011241FBEE5
:10009000CFEFD0E1DEBFCDBF21E0A0E0B1E001C0F5
:1000A0001D92A330B207E1F77ED086C0A9CF982F6A
:1000B000907F95BB95B3986095BBEFE4F3EC3197D7
:1000C000F1F700C0000094E095BBF0E18F9FC00104
:1000D000112485BB85B3886085BB8FE493EC0197C1
:1000E000F1F700C0000015BA08958FEF84BB82E0DD
:1000F000DEDF88E2DCDF8CE0DADF86E0D8DF80E874
:10010000D6CF089520E030E008C0EFECF7E031975B
:10011000F1F700C000002F5F3F4F28173907ACF3FD
:1001200008951F920F920FB60F9211242F938F9361
:100130009F93809101019091020101969093020199
:10014000809301018931910579F4209100012111F9
:100150000BC081E08093000182B3805882BB109273
:100160000201109201010FC00F9769F48091000104
:10017000813049F41092000182B3805882BB109202
:100180000201109201019F918F912F910F900FBE4C
:100190000F901F9018958DE783BD87B7806887BF44
:1001A0008BE085BD0895A1DFF6DF78948FEF81BBEA
:0C01B00084E690E0A7DFFCCFF894FFCFBE
:00000001FF
