S00F0000436F756E7465722E7372656335
S113000045C0000053C0000051C000004FC00000B4
S11300104DC000004BC0000049C0000047C00000B4
S113002045C00000B0C0000041C000003FC0000057
S11300303DC000003BC0000039C0000037C00000D4
S113004035C0000033C0000031C000002FC00000E4
S11300502DC000002BC0000029C0000027C00000F4
S113006025C0000023C0000021C000001FC0000004
S11300701DC000001BC0000019C0000017C0000014
S113008015C0000013C0000011C0000011241FBEE1
S1130090CFEFD0E1DEBFCDBF21E0A0E0B1E001C0F1
S11300A01D92A230B207E1F78ED0E2C0A9CF85B38A
S11300B0886085BB8FEC97E00197F1F700C00000E2
S11300C085B3877F85BB8FEC97E00197F1F700C07C
S11300D000000895CF93C82F85BB85B3846085BB8A
S11300E0E6DFC295C07FC5BB85B3846085BBDFDF17
S11300F0CF910895CF93DF93EC0102C0EBDF2196FB
S113010088818111FBCFDF91CF910895982F907F43
S113011095BB95B3986095BBEFE4F3EC3197F1F799
S113012000C0000094E095BBF0E18F9FC001112452
S113013085BB85B3886085BB8FE493EC0197F1F7A9
S113014000C0000015BA08958FEF84BB82E0DEDFA3
S113015088E2DCDF8CE0DADF86E0D8DF80E8D6CF27
S113016008958068D3CF089520E030E008C0EFEC14
S1130170F7E03197F1F700C000002F5F3F4F2817D9
S11301803907ACF308951F920F920FB60F92112402
S11301908F939F9380910001909101010196909318
S11301A00101809300019F918F910F900FBE0F90DA
S11301B01F90189581E083BD87B7806887BF8FE162
S11301C085BD78940895CF93DF93CDB7DEB72A9792
S11301D00FB6F894DEBF0FBECDBF8FEF8ABB81B3DD
S11301E08F7781BBB1DFE6DF80E090E0BADF4AE0E1
S11301F0BE016F5F7F4F809100019091010105D096
S113020079DF8BE490E0B0DFEFCFBB274A3031F4E5
S1130210992322F4BDE2909581959F4F01C0BB279D
S1130220FB015527AA27880F991FAA1FA41710F0AE
S1130230A41B83955051B9F7A05DAA3308F0A95DBA
S1130240A193009779F7B111B1931192CB0100C03A
S1130250DC01FC01672F71917723E1F7329704C029
S11302607C916D9370836291AE17BF07C8F30895B4
S1070270F894FFCF2C
S9030000FC
