:1000000045C0000058C0000056C0000054C00000A9
:1000100052C0000050C000004EC000004CC00000A4
:100020004AC0000048C0000046C0000044C00000B4
:1000300042C0000040C000003EC000003CC00000C4
:100040003AC0000038C0000036C0000034C00000D4
:1000500032C0000030C000002EC000002CC00000E4
:100060002AC0000028C0000026C0000024C00000F4
:1000700022C0000020C000001EC000001CC0000004
:100080001AC0000018C0000016C0000011241FBED6
:10009000CFEFD0E1DEBFCDBF11E0A0E0B1E0E8EAF4
:1000A000F1E000E00BBF02C007900D92AC31B10748
:1000B000D9F75FD077C0A4CF85B3886085BB8FECBC
:1000C00097E00197F1F700C0000085B3877F85BBFB
:1000D0008FEC97E00197F1F700C000000895CF93EF
:1000E000C82F85BB85B3846085BBE6DFC295C07F22
:1000F000C5BB85B3846085BBDFDFCF910895CF9307
:10010000DF93EC0102C0EBDF219688818111FBCFE8
:10011000DF91CF910895982F907F95BB95B398600C
:1001200095BBEFE4F3EC3197F1F700C0000094E0E9
:1001300095BBF0E18F9FC001112485BB85B388601A
:1001400085BB8FE493EC0197F1F700C0000015BA6E
:1001500008958FEF84BB82E0DEDF88E2DCDF8CE095
:10016000DADF86E0D8DF80E8D6CF08958068D3CF85
:1001700008958FEF81BBEDDF80E091E0C0DF81E487
:1001800090E0F4DF8CE091E0BADF82B3805882BB6C
:100190002FE78AE196E0215080409040E1F700C0CF
:0801A0000000F3CFF894FFCF3B
:1001A80048656C6C6F20776F726C64004275727969
:0C01B80020746865206C696768740000A2
:00000001FF
