:1000000045C0000058C0000056C0000054C00000A9
:1000100052C0000050C000004EC000004CC00000A4
:100020004AC0000048C0000046C0000044C00000B4
:1000300042C0000040C000003EC000003CC00000C4
:100040003AC0000038C0000036C0000034C00000D4
:1000500032C0000030C000002EC000002CC00000E4
:100060002AC0000028C0000026C0000024C00000F4
:1000700022C0000020C000001EC000001CC0000004
:100080001AC0000018C0000016C0000011241FBED6
:10009000CFEFD0E1DEBFCDBF11E0A0E0B1E0E2E301
:1000A000F1E000E00BBF02C007900D92AE32B10745
:1000B000D9F711D03CC0A4CF20E030E008C0EFEC6D
:1000C000F7E03197F1F700C000002F5F3F4F28178E
:1000D0003907ACF30895CF93DF938FEF87BBC0E070
:1000E000D0E015C0FE01EE0FFF1FEC0FFD1FE0502A
:1000F000FF4F808188BB81819281DEDF2196CF70A6
:10010000D078DD2324F42197C06FDF6F2196FE01A4
:10011000EE0FFF1FEC0FFD1FE050FF4F818192811A
:10012000892B01F781E090E0DF91CF910895F89459
:02013000FFCFFF
:10013200016400026400046400086400106400406A
:1001420064000264000164002064004064000464EE
:0E0152000008640010640040640002640000B5
:00000001FF
